:04000000BDEF05F05B
:0B0800000032332E30342E313800005F
:10080C00899092908C9495948C9695960F0E951643
:10081C00000E3A6E010E396E050E026EDE0EE82EDB
:10082C00FED7022EFCD7300EA0EC05F0FA0E00D04D
:10083C00E82EFDD7300EA0EC05F0FA0E00D0E82E15
:10084C00FDD7300EA0EC05F0FA0E00D0E82EFDD747
:10085C00200EA0EC05F02CEC05F00009D8A4FBD779
:10086C002CEC05F00009D8A4FBD78C94280EF9ECDD
:10087C0004F02CEC05F00009D8A4FBD78C940C0EDA
:10088C00F9EC04F02CEC05F00009D8A4FBD78C94FF
:10089C00060EF9EC04F02CEC05F00009D8A4FBD7FB
:1008AC008C94010EF9EC04F02CEC05F00009D8A4A2
:1008BC00FBD78C94020EF9EC04F0FA0E00D0E82E63
:1008CC00FDD712000F0EC16E000E946E000E826EDC
:1008DC00000E376E06EC04F093802CEC05F000094A
:1008EC00D8A4FBD78C94800EF9EC04F0010E026EA8
:1008FC00080E036ED8EC05F02CEC05F00009D8A41A
:10090C00FBD78C94C00EF9EC04F02E0E026E000E88
:10091C00036EF3EC05F02CEC05F00009D8A4FBD722
:10092C008C940C0EF9EC04F02CEC05F00009D8A416
:10093C00FBD78C94C30EF9EC04F081B006D081A0E7
:10094C00FED7354A362A010E376E3750D8B4F5D754
:10095C002CEC05F00009D8A4FBD78C94C40EF9EC50
:10096C0004F035C008F036C009F0C0EC04F0000EFD
:10097C00376EE3D72A0E2C6E000E2D6E2CC0D9FFCD
:10098C002DC0DAFF000EDF6E08C001F009C002F0C6
:10099C00000E046E0A0E036E7FEC05F001502B6EF8
:1009AC0008C001F009C002F0000E046E0A0E036EBE
:1009BC0056EC05F001C008F002C009F02B50300FC6
:1009CC002C06D8A02D062CC0D9FF2DC0DAFFDF6E67
:1009DC0008500910D8A4D8D72CC002F02DC003F0B1
:1009EC00F3EC05F01200016E01C038F0899038AEBE
:1009FC0002D08C8E01D08C9E38AC02D08C8C01D065
:100A0C008C9C38AA02D08C8A01D08C9A38A802D03F
:100A1C008C8801D08C988C8600F08C9638A602D0ED
:100A2C008C8E01D08C9E38A402D08C8C01D08C9CE6
:100A3C0038A202D08C8A01D08C9A38A002D08C8833
:100A4C0001D08C988C8600F08C9612003A5004E100
:100A5C00640E395CD8A006D0000E3A6E010E396EC9
:100A6C00000E120089808C94F00E95128C8600F08A
:100A7C0083AE02D0388E01D0389E8C968C8600F0D6
:100A8C008C960F0E9516899038AE04D0394A3A2AB6
:100A9C00010E1200000E3A6E010E396E000E12009D
:100AAC00000E066E000E056E03500410D8B41CD058
:100ABC00010E076E04D0D89003360436072A04AE14
:100ACC00FAD7D890053606360350015C045002580C
:100ADC00D8A005D00350015E0450025A0580D8906E
:100AEC0004320332072EEDD705C001F006C002F028
:100AFC00120003500410D8B418D0010E056E04D0A7
:100B0C00D89003360436052A04AEFAD70350015C9C
:100B1C0004500258D8A004D00350015E0450025A6D
:100B2C00D89004320332052EF1D701C001F002C077
:100B3C0002F01200016E01C038F08C94899038A834
:100B4C0002D08C8801D08C9838AA02D08C8A01D023
:100B5C008C9A38AC02D08C8C01D08C9C38AE02D0E4
:100B6C008C8E01D08C9E8C8600F08C961200160E0A
:100B7C00F66E0C0EF76E000EF86E00EE2EF010EE08
:100B8C0007F00900F5CFEEFFE550E150FAE1386AC5
:100B9C00376A366A356A000EF86E080EF76E000179
:100BAC0068EF04F010D02CEC05F00009D8A4FBD7AA
:100BBC008C8402C0F6FF03C0F7FF0800F550F9EC77
:100BCC0004F0024A032A02C0F6FF03C0F7FF080034
:100BDC00F5500009D8B41200E6D70FD02CEC05F074
:100BEC000009D8A4FBD78C8402C0D9FF03C0DAFF5C
:100BFC00DF50F9EC04F0024A032A02C0D9FF03C00B
:100C0C00DAFFDF50D8B41200E9D742746E203F00EF
:010C1C0000D7
:020000040020DA
:08000000FFFFFFFFFFFFFFFF00
:020000040030CA
:0E00000000081F1EFF8181FF0FC00FE00F40A0
:00000001FF
